{
  "contractName": "RudolphCoin",
  "abi": [
    {
      "constant": true,
      "inputs": [],
      "name": "totalSupply",
      "outputs": [
        {
          "name": "",
          "type": "uint256"
        }
      ],
      "payable": false,
      "stateMutability": "view",
      "type": "function"
    },
    {
      "constant": false,
      "inputs": [],
      "name": "RudolphCoinz",
      "outputs": [],
      "payable": false,
      "stateMutability": "nonpayable",
      "type": "constructor"
    }
  ],
  "bytecode": "0x608060405234801561001057600080fd5b50620f4240600081905550609e806100296000396000f3fe608060405260043610603f576000357c0100000000000000000000000000000000000000000000000000000000900463ffffffff16806318160ddd146044575b600080fd5b348015604f57600080fd5b506056606c565b6040518082815260200191505060405180910390f35b6000548156fea165627a7a7230582092d3c544819a62818b21c0cdd0f5307a4044d4bafaf178ce6d2ef3964acd6f590029",
  "source": "pragma solidity ^0.5.0;\n\ncontract RudolphCoin{\n  //Constructor\n  //Set total number of tokens\n  //read the total number of tokens\n  uint256 public totalSupply;\n\n  constructor() public {\n    totalSupply  = 1000000;\n\n  }\n}\n",
  "sourcePath": "/Users/julian/Desktop/rudolphCoin/contracts/RudolphCoin.sol",
  "compiler": {
    "name": "solc",
    "version": "0.5.0+commit.1d4f565a.Emscripten.clang"
  },
  "schemaVersion": "3.0.9",
  "updatedAt": "2019-05-15T14:08:07.574Z",
  "devdoc": {
    "methods": {}
  },
  "userdoc": {
    "methods": {}
  }
}